{
  "_format": "hh-sol-artifact-1",
  "contractName": "LiquidityPool",
  "sourceName": "contracts/Liquidity.sol",
  "abi": [
    {
      "inputs": [
        {
          "internalType": "contract INonfungiblePositionManager",
          "name": "_nonfungiblePositionManager",
          "type": "address"
        }
      ],
      "stateMutability": "nonpayable",
      "type": "constructor"
    },
    {
      "inputs": [
        {
          "internalType": "uint256",
          "name": "tokenId",
          "type": "uint256"
        }
      ],
      "name": "collectAllFees",
      "outputs": [
        {
          "internalType": "uint256",
          "name": "amount0",
          "type": "uint256"
        },
        {
          "internalType": "uint256",
          "name": "amount1",
          "type": "uint256"
        }
      ],
      "stateMutability": "nonpayable",
      "type": "function"
    },
    {
      "inputs": [
        {
          "internalType": "uint256",
          "name": "tokenId",
          "type": "uint256"
        },
        {
          "internalType": "uint128",
          "name": "_liquidity",
          "type": "uint128"
        }
      ],
      "name": "decreaseLiquidity",
      "outputs": [
        {
          "internalType": "uint256",
          "name": "amount0",
          "type": "uint256"
        },
        {
          "internalType": "uint256",
          "name": "amount1",
          "type": "uint256"
        }
      ],
      "stateMutability": "nonpayable",
      "type": "function"
    },
    {
      "inputs": [
        {
          "internalType": "uint256",
          "name": "",
          "type": "uint256"
        }
      ],
      "name": "deposits",
      "outputs": [
        {
          "internalType": "address",
          "name": "owner",
          "type": "address"
        },
        {
          "internalType": "uint128",
          "name": "liquidity",
          "type": "uint128"
        },
        {
          "internalType": "address",
          "name": "token0",
          "type": "address"
        },
        {
          "internalType": "address",
          "name": "token1",
          "type": "address"
        }
      ],
      "stateMutability": "view",
      "type": "function"
    },
    {
      "inputs": [
        {
          "internalType": "uint256",
          "name": "tokenId",
          "type": "uint256"
        },
        {
          "internalType": "uint256",
          "name": "amountAdd0",
          "type": "uint256"
        },
        {
          "internalType": "uint256",
          "name": "amountAdd1",
          "type": "uint256"
        }
      ],
      "name": "increaseLiquidityCurrentRange",
      "outputs": [
        {
          "internalType": "uint128",
          "name": "liquidity",
          "type": "uint128"
        },
        {
          "internalType": "uint256",
          "name": "amount0",
          "type": "uint256"
        },
        {
          "internalType": "uint256",
          "name": "amount1",
          "type": "uint256"
        }
      ],
      "stateMutability": "nonpayable",
      "type": "function"
    },
    {
      "inputs": [
        {
          "internalType": "address",
          "name": "customToken",
          "type": "address"
        },
        {
          "internalType": "address",
          "name": "genericToken",
          "type": "address"
        },
        {
          "internalType": "uint256",
          "name": "amount0ToMint",
          "type": "uint256"
        },
        {
          "internalType": "uint256",
          "name": "amount1ToMint",
          "type": "uint256"
        },
        {
          "internalType": "address",
          "name": "customTokenOwner",
          "type": "address"
        }
      ],
      "name": "mintNewPosition",
      "outputs": [
        {
          "internalType": "uint256",
          "name": "tokenId",
          "type": "uint256"
        },
        {
          "internalType": "uint128",
          "name": "liquidity",
          "type": "uint128"
        },
        {
          "internalType": "uint256",
          "name": "amount0",
          "type": "uint256"
        },
        {
          "internalType": "uint256",
          "name": "amount1",
          "type": "uint256"
        }
      ],
      "stateMutability": "nonpayable",
      "type": "function"
    },
    {
      "inputs": [],
      "name": "nonfungiblePositionManager",
      "outputs": [
        {
          "internalType": "contract INonfungiblePositionManager",
          "name": "",
          "type": "address"
        }
      ],
      "stateMutability": "view",
      "type": "function"
    },
    {
      "inputs": [
        {
          "internalType": "address",
          "name": "operator",
          "type": "address"
        },
        {
          "internalType": "address",
          "name": "",
          "type": "address"
        },
        {
          "internalType": "uint256",
          "name": "tokenId",
          "type": "uint256"
        },
        {
          "internalType": "bytes",
          "name": "",
          "type": "bytes"
        }
      ],
      "name": "onERC721Received",
      "outputs": [
        {
          "internalType": "bytes4",
          "name": "",
          "type": "bytes4"
        }
      ],
      "stateMutability": "nonpayable",
      "type": "function"
    },
    {
      "inputs": [],
      "name": "poolFee",
      "outputs": [
        {
          "internalType": "uint24",
          "name": "",
          "type": "uint24"
        }
      ],
      "stateMutability": "view",
      "type": "function"
    },
    {
      "inputs": [
        {
          "internalType": "uint256",
          "name": "tokenId",
          "type": "uint256"
        }
      ],
      "name": "retrieveNFT",
      "outputs": [],
      "stateMutability": "nonpayable",
      "type": "function"
    }
  ],
  "bytecode": "0x60a060405234801561001057600080fd5b5060405161177a38038061177a83398101604081905261002f91610044565b60601b6001600160601b031916608052610072565b600060208284031215610055578081fd5b81516001600160a01b038116811461006b578182fd5b9392505050565b60805160601c6116af6100cb60003980610221528061035f528061038a528061043d52806104e6528061052a52806105bf52806106d6528061071c528061079e52806108cb52806109ab52806109d452506116af6000f3fe608060405234801561001057600080fd5b50600436106100a35760003560e01c806346ce96dd1161007657806399d7b5941161005b57806399d7b59414610161578063b02c43d014610174578063b44a272214610197576100a3565b806346ce96dd1461011e578063617d6d6e1461013f576100a3565b8063089fe6aa146100a85780630a1d7c5f146100c6578063150b7a02146100db5780633a2eb4f0146100fb575b600080fd5b6100b06101ac565b6040516100bd9190611601565b60405180910390f35b6100d96100d43660046111ca565b6101b2565b005b6100ee6100e936600461109c565b610304565b6040516100bd91906113f0565b61010e610109366004611136565b61033b565b6040516100bd949392919061161a565b61013161012c3660046111ca565b61056d565b6040516100bd92919061163e565b61015261014d366004611271565b610663565b6040516100bd939291906115e0565b61013161016f3660046111e2565b610835565b6101876101823660046111ca565b610969565b6040516100bd94939291906113bc565b61019f6109a9565b6040516100bd919061141d565b610bb881565b6000818152602081905260409020546001600160a01b031633146101f15760405162461bcd60e51b81526004016101e890611431565b60405180910390fd5b6040517f42842e0e0000000000000000000000000000000000000000000000000000000081526001600160a01b037f000000000000000000000000000000000000000000000000000000000000000016906342842e0e9061025a90309033908690600401611398565b600060405180830381600087803b15801561027457600080fd5b505af1158015610288573d6000803e3d6000fd5b50505060009182525060208190526040902080547fffffffffffffffffffffffff000000000000000000000000000000000000000090811682556001820180547fffffffffffffffffffffffffffffffff0000000000000000000000000000000016905560028201805482169055600390910180549091169055565b600061031086856109cd565b507f150b7a020000000000000000000000000000000000000000000000000000000095945050505050565b60008060008061034d8986308a610b93565b61035988863089610b93565b610384897f000000000000000000000000000000000000000000000000000000000000000089610d1e565b6103af887f000000000000000000000000000000000000000000000000000000000000000088610d1e565b60408051610160810182526001600160a01b03808c1682528a81166020830152610bb882840152620d89e7196060830152620d89e8608083015260a082018a905260c08201899052600060e08301819052610100830152306101208301524261014083015291517f8831645600000000000000000000000000000000000000000000000000000000815290917f00000000000000000000000000000000000000000000000000000000000000001690638831645690610472908490600401611532565b608060405180830381600087803b15801561048c57600080fd5b505af11580156104a0573d6000803e3d6000fd5b505050506040513d601f19601f820116820180604052508101906104c49190611211565b929750909550935091506104d886866109cd565b8783101561051c5761050c8a7f00000000000000000000000000000000000000000000000000000000000000006000610d1e565b82880361051a8b8883610ea0565b505b8682101561056057610550897f00000000000000000000000000000000000000000000000000000000000000006000610d1e565b81870361055e8a8883610ea0565b505b5095509550955095915050565b604080516080810182528281523060208201526001600160801b03818301819052606082015290517ffc6f786500000000000000000000000000000000000000000000000000000000815260009182917f00000000000000000000000000000000000000000000000000000000000000006001600160a01b03169063fc6f7865906105fc908490600401611468565b6040805180830381600087803b15801561061557600080fd5b505af1158015610629573d6000803e3d6000fd5b505050506040513d601f19601f8201168201806040525081019061064d919061124e565b909350915061065d84848461101b565b50915091565b6000838152602081905260408120600201548190819061068e906001600160a01b0316333088610b93565b6000868152602081905260409020600301546106b5906001600160a01b0316333087610b93565b6000868152602081905260409020600201546106fb906001600160a01b03167f000000000000000000000000000000000000000000000000000000000000000087610d1e565b600086815260208190526040902060030154610741906001600160a01b03167f000000000000000000000000000000000000000000000000000000000000000086610d1e565b6040805160c0810182528781526020810187905280820186905260006060820181905260808201524260a082015290517f219f5d170000000000000000000000000000000000000000000000000000000081526001600160a01b037f0000000000000000000000000000000000000000000000000000000000000000169063219f5d17906107d39084906004016114ee565b606060405180830381600087803b1580156107ed57600080fd5b505af1158015610801573d6000803e3d6000fd5b505050506040513d601f19601f820116820180604052508101906108259190611194565b9199909850909650945050505050565b60008281526020819052604081205481906001600160a01b0316331461086d5760405162461bcd60e51b81526004016101e890611431565b6040805160a0810182528581526001600160801b03851660208201526000818301819052606082015242608082015290517f0c49ccbe0000000000000000000000000000000000000000000000000000000081526001600160a01b037f00000000000000000000000000000000000000000000000000000000000000001690630c49ccbe906109009084906004016114ab565b6040805180830381600087803b15801561091957600080fd5b505af115801561092d573d6000803e3d6000fd5b505050506040513d601f19601f82011682018060405250810190610951919061124e565b909350915061096185848461101b565b509250929050565b60006020819052908152604090208054600182015460028301546003909301546001600160a01b03928316936001600160801b0390921692918216911684565b7f000000000000000000000000000000000000000000000000000000000000000081565b60008060007f00000000000000000000000000000000000000000000000000000000000000006001600160a01b03166399fbab88856040518263ffffffff1660e01b8152600401610a1e9190611611565b6101806040518083038186803b158015610a3757600080fd5b505afa158015610a4b573d6000803e3d6000fd5b505050506040513d601f19601f82011682018060405250810190610a6f919061129c565b5050505097505050509450945050506040518060800160405280866001600160a01b03168152602001826001600160801b03168152602001846001600160a01b03168152602001836001600160a01b031681525060008086815260200190815260200160002060008201518160000160006101000a8154816001600160a01b0302191690836001600160a01b0316021790555060208201518160010160006101000a8154816001600160801b0302191690836001600160801b0316021790555060408201518160020160006101000a8154816001600160a01b0302191690836001600160a01b0316021790555060608201518160030160006101000a8154816001600160a01b0302191690836001600160a01b031602179055509050505050505050565b604080516001600160a01b0385811660248301528481166044830152606480830185905283518084039091018152608490920183526020820180516001600160e01b03167f23b872dd00000000000000000000000000000000000000000000000000000000178152925182516000948594938a169392918291908083835b60208310610c305780518252601f199092019160209182019101610c11565b6001836020036101000a0380198251168184511680821785525050505050509050019150506000604051808303816000865af19150503d8060008114610c92576040519150601f19603f3d011682016040523d82523d6000602084013e610c97565b606091505b5091509150818015610cc5575080511580610cc55750808060200190516020811015610cc257600080fd5b50515b610d16576040805162461bcd60e51b815260206004820152600360248201527f5354460000000000000000000000000000000000000000000000000000000000604482015290519081900360640190fd5b505050505050565b604080516001600160a01b038481166024830152604480830185905283518084039091018152606490920183526020820180516001600160e01b03167f095ea7b3000000000000000000000000000000000000000000000000000000001781529251825160009485949389169392918291908083835b60208310610db35780518252601f199092019160209182019101610d94565b6001836020036101000a0380198251168184511680821785525050505050509050019150506000604051808303816000865af19150503d8060008114610e15576040519150601f19603f3d011682016040523d82523d6000602084013e610e1a565b606091505b5091509150818015610e48575080511580610e485750808060200190516020811015610e4557600080fd5b50515b610e99576040805162461bcd60e51b815260206004820152600260248201527f5341000000000000000000000000000000000000000000000000000000000000604482015290519081900360640190fd5b5050505050565b604080516001600160a01b038481166024830152604480830185905283518084039091018152606490920183526020820180516001600160e01b03167fa9059cbb000000000000000000000000000000000000000000000000000000001781529251825160009485949389169392918291908083835b60208310610f355780518252601f199092019160209182019101610f16565b6001836020036101000a0380198251168184511680821785525050505050509050019150506000604051808303816000865af19150503d8060008114610f97576040519150601f19603f3d011682016040523d82523d6000602084013e610f9c565b606091505b5091509150818015610fca575080511580610fca5750808060200190516020811015610fc757600080fd5b50515b610e99576040805162461bcd60e51b815260206004820152600260248201527f5354000000000000000000000000000000000000000000000000000000000000604482015290519081900360640190fd5b6000838152602081905260409020805460028201546003909201546001600160a01b039182169282169116611051828487610ea0565b610d16818486610ea0565b80516110678161164c565b919050565b8051600281900b811461106757600080fd5b805161106781611664565b805162ffffff8116811461106757600080fd5b6000806000806000608086880312156110b3578081fd5b85356110be8161164c565b945060208601356110ce8161164c565b935060408601359250606086013567ffffffffffffffff808211156110f1578283fd5b818801915088601f830112611104578283fd5b813581811115611112578384fd5b896020828501011115611123578384fd5b9699959850939650602001949392505050565b600080600080600060a0868803121561114d578081fd5b85356111588161164c565b945060208601356111688161164c565b9350604086013592506060860135915060808601356111868161164c565b809150509295509295909350565b6000806000606084860312156111a8578283fd5b83516111b381611664565b602085015160409095015190969495509392505050565b6000602082840312156111db578081fd5b5035919050565b600080604083850312156111f4578182fd5b82359150602083013561120681611664565b809150509250929050565b60008060008060808587031215611226578384fd5b84519350602085015161123881611664565b6040860151606090960151949790965092505050565b60008060408385031215611260578182fd5b505080516020909101519092909150565b600080600060608486031215611285578283fd5b505081359360208301359350604090920135919050565b6000806000806000806000806000806000806101808d8f0312156112be578687fd5b8c516bffffffffffffffffffffffff811681146112d9578788fd5b9b506112e760208e0161105c565b9a506112f560408e0161105c565b995061130360608e0161105c565b985061131160808e01611089565b975061131f60a08e0161106c565b965061132d60c08e0161106c565b955061133b60e08e0161107e565b94506101008d015193506101208d0151925061135a6101408e0161107e565b91506113696101608e0161107e565b90509295989b509295989b509295989b565b6001600160a01b03169052565b60020b9052565b62ffffff169052565b6001600160a01b039384168152919092166020820152604081019190915260600190565b6001600160a01b0394851681526001600160801b039390931660208401529083166040830152909116606082015260800190565b7fffffffff0000000000000000000000000000000000000000000000000000000091909116815260200190565b6001600160a01b0391909116815260200190565b6020808252600d908201527f4e6f7420746865206f776e657200000000000000000000000000000000000000604082015260600190565b815181526020808301516001600160a01b0316908201526040808301516001600160801b0390811691830191909152606092830151169181019190915260800190565b600060a082019050825182526001600160801b03602084015116602083015260408301516040830152606083015160608301526080830151608083015292915050565b600060c082019050825182526020830151602083015260408301516040830152606083015160608301526080830151608083015260a083015160a083015292915050565b60006101608201905061154682845161137b565b6020830151611558602084018261137b565b50604083015161156b604084018261138f565b50606083015161157e6060840182611388565b5060808301516115916080840182611388565b5060a083015160a083015260c083015160c083015260e083015160e0830152610100808401518184015250610120808401516115cf8285018261137b565b505061014092830151919092015290565b6001600160801b039390931683526020830191909152604082015260600190565b62ffffff91909116815260200190565b90815260200190565b9384526001600160801b039290921660208401526040830152606082015260800190565b918252602082015260400190565b6001600160a01b038116811461166157600080fd5b50565b6001600160801b038116811461166157600080fdfea26469706673582212205b9d312db65dcec42c039f819daa6f696eecd5fa9cf82287f86f1d3bf6e9d38f64736f6c63430007060033",
  "linkReferences": {},
  "deployedLinkReferences": {}
}