{
  "_format": "hh-sol-artifact-1",
  "contractName": "SwapMultiHop",
  "sourceName": "contracts/SwapMultiHop.sol",
  "abi": [
    {
      "inputs": [],
      "name": "DAI",
      "outputs": [
        {
          "internalType": "address",
          "name": "",
          "type": "address"
        }
      ],
      "stateMutability": "view",
      "type": "function"
    },
    {
      "inputs": [],
      "name": "USDC",
      "outputs": [
        {
          "internalType": "address",
          "name": "",
          "type": "address"
        }
      ],
      "stateMutability": "view",
      "type": "function"
    },
    {
      "inputs": [],
      "name": "WETH9",
      "outputs": [
        {
          "internalType": "address",
          "name": "",
          "type": "address"
        }
      ],
      "stateMutability": "view",
      "type": "function"
    },
    {
      "inputs": [],
      "name": "poolFee",
      "outputs": [
        {
          "internalType": "uint24",
          "name": "",
          "type": "uint24"
        }
      ],
      "stateMutability": "view",
      "type": "function"
    },
    {
      "inputs": [
        {
          "internalType": "uint256",
          "name": "amountIn",
          "type": "uint256"
        }
      ],
      "name": "swapExactInputMultiHop",
      "outputs": [
        {
          "internalType": "uint256",
          "name": "amountOut",
          "type": "uint256"
        }
      ],
      "stateMutability": "nonpayable",
      "type": "function"
    },
    {
      "inputs": [
        {
          "internalType": "uint256",
          "name": "amountOut",
          "type": "uint256"
        },
        {
          "internalType": "uint256",
          "name": "amountInMaximum",
          "type": "uint256"
        }
      ],
      "name": "swapExactOutputMultiHop",
      "outputs": [
        {
          "internalType": "uint256",
          "name": "amountIn",
          "type": "uint256"
        }
      ],
      "stateMutability": "nonpayable",
      "type": "function"
    },
    {
      "inputs": [],
      "name": "swapRouter",
      "outputs": [
        {
          "internalType": "contract ISwapRouter",
          "name": "",
          "type": "address"
        }
      ],
      "stateMutability": "view",
      "type": "function"
    }
  ],
  "bytecode": "0x60a060405273e592427a0aece92de3edee1f18e0157c0586156473ffffffffffffffffffffffffffffffffffffffff1660809073ffffffffffffffffffffffffffffffffffffffff1681525034801561005757600080fd5b50608051610fdf610096600039600081816101d2015281816102a20152818161035e015281816103bc0152818161048b01526105490152610fdf6000f3fe608060405234801561001057600080fd5b506004361061007d5760003560e01c806389a302711161005b57806389a30271146100ee578063c31c9c071461010c578063d05d4cdd1461012a578063e0bab4c41461015a5761007d565b8063089fe6aa146100825780634aa4a4fc146100a057806357688eda146100be575b600080fd5b61008a610178565b6040516100979190610885565b60405180910390f35b6100a861017e565b6040516100b591906108e1565b60405180910390f35b6100d860048036038101906100d39190610937565b610196565b6040516100e59190610973565b60405180910390f35b6100f6610344565b60405161010391906108e1565b60405180910390f35b61011461035c565b60405161012191906109ed565b60405180910390f35b610144600480360381019061013f9190610a08565b610380565b6040516101519190610973565b60405180910390f35b6101626105a2565b60405161016f91906108e1565b60405180910390f35b610bb881565b73c02aaa39b223fe8d0a0e5c4f27ead9083c756cc281565b60006101b873c02aaa39b223fe8d0a0e5c4f27ead9083c756cc23330856105ba565b6101f773c02aaa39b223fe8d0a0e5c4f27ead9083c756cc27f000000000000000000000000000000000000000000000000000000000000000084610712565b60006040518060a0016040528073c02aaa39b223fe8d0a0e5c4f27ead9083c756cc2610bb873a0b86991c6218b36c1d19d4a2e9eb0ce3606eb48610bb8736b175474e89094c44da98b954eedeac495271d0f60405160200161025d959493929190610ac6565b60405160208183030381529060405281526020013373ffffffffffffffffffffffffffffffffffffffff168152602001428152602001848152602001600081525090507f000000000000000000000000000000000000000000000000000000000000000073ffffffffffffffffffffffffffffffffffffffff1663c04b8d59826040518263ffffffff1660e01b81526004016102f99190610c49565b6020604051808303816000875af1158015610318573d6000803e3d6000fd5b505050506040513d601f19601f8201168201806040525081019061033c9190610c80565b915050919050565b73a0b86991c6218b36c1d19d4a2e9eb0ce3606eb4881565b7f000000000000000000000000000000000000000000000000000000000000000081565b60006103a273c02aaa39b223fe8d0a0e5c4f27ead9083c756cc23330856105ba565b6103e173c02aaa39b223fe8d0a0e5c4f27ead9083c756cc27f000000000000000000000000000000000000000000000000000000000000000084610712565b60006040518060a00160405280736b175474e89094c44da98b954eedeac495271d0f610bb873a0b86991c6218b36c1d19d4a2e9eb0ce3606eb48610bb873c02aaa39b223fe8d0a0e5c4f27ead9083c756cc2604051602001610447959493929190610ac6565b60405160208183030381529060405281526020013373ffffffffffffffffffffffffffffffffffffffff1681526020014281526020018581526020018481525090507f000000000000000000000000000000000000000000000000000000000000000073ffffffffffffffffffffffffffffffffffffffff1663f28c0498826040518263ffffffff1660e01b81526004016104e29190610d23565b6020604051808303816000875af1158015610501573d6000803e3d6000fd5b505050506040513d601f19601f820116820180604052508101906105259190610c80565b91508282101561059b5761056f73c02aaa39b223fe8d0a0e5c4f27ead9083c756cc27f00000000000000000000000000000000000000000000000000000000000000006000610712565b61059a73c02aaa39b223fe8d0a0e5c4f27ead9083c756cc2303385876105959190610d74565b6105ba565b5b5092915050565b736b175474e89094c44da98b954eedeac495271d0f81565b6000808573ffffffffffffffffffffffffffffffffffffffff166323b872dd60e01b8686866040516024016105f193929190610da8565b604051602081830303815290604052907bffffffffffffffffffffffffffffffffffffffffffffffffffffffff19166020820180517bffffffffffffffffffffffffffffffffffffffffffffffffffffffff838183161783525050505060405161065b9190610e1b565b6000604051808303816000865af19150503d8060008114610698576040519150601f19603f3d011682016040523d82523d6000602084013e61069d565b606091505b50915091508180156106cb57506000815114806106ca5750808060200190518101906106c99190610e6a565b5b5b61070a576040517f08c379a000000000000000000000000000000000000000000000000000000000815260040161070190610ef4565b60405180910390fd5b505050505050565b6000808473ffffffffffffffffffffffffffffffffffffffff1663095ea7b360e01b8585604051602401610747929190610f14565b604051602081830303815290604052907bffffffffffffffffffffffffffffffffffffffffffffffffffffffff19166020820180517bffffffffffffffffffffffffffffffffffffffffffffffffffffffff83818316178352505050506040516107b19190610e1b565b6000604051808303816000865af19150503d80600081146107ee576040519150601f19603f3d011682016040523d82523d6000602084013e6107f3565b606091505b5091509150818015610821575060008151148061082057508080602001905181019061081f9190610e6a565b5b5b610860576040517f08c379a000000000000000000000000000000000000000000000000000000000815260040161085790610f89565b60405180910390fd5b5050505050565b600062ffffff82169050919050565b61087f81610867565b82525050565b600060208201905061089a6000830184610876565b92915050565b600073ffffffffffffffffffffffffffffffffffffffff82169050919050565b60006108cb826108a0565b9050919050565b6108db816108c0565b82525050565b60006020820190506108f660008301846108d2565b92915050565b600080fd5b6000819050919050565b61091481610901565b811461091f57600080fd5b50565b6000813590506109318161090b565b92915050565b60006020828403121561094d5761094c6108fc565b5b600061095b84828501610922565b91505092915050565b61096d81610901565b82525050565b60006020820190506109886000830184610964565b92915050565b6000819050919050565b60006109b36109ae6109a9846108a0565b61098e565b6108a0565b9050919050565b60006109c582610998565b9050919050565b60006109d7826109ba565b9050919050565b6109e7816109cc565b82525050565b6000602082019050610a0260008301846109de565b92915050565b60008060408385031215610a1f57610a1e6108fc565b5b6000610a2d85828601610922565b9250506020610a3e85828601610922565b9150509250929050565b60008160601b9050919050565b6000610a6082610a48565b9050919050565b6000610a7282610a55565b9050919050565b610a8a610a85826108c0565b610a67565b82525050565b60008160e81b9050919050565b6000610aa882610a90565b9050919050565b610ac0610abb82610867565b610a9d565b82525050565b6000610ad28288610a79565b601482019150610ae28287610aaf565b600382019150610af28286610a79565b601482019150610b028285610aaf565b600382019150610b128284610a79565b6014820191508190509695505050505050565b600081519050919050565b600082825260208201905092915050565b60005b83811015610b5f578082015181840152602081019050610b44565b60008484015250505050565b6000601f19601f8301169050919050565b6000610b8782610b25565b610b918185610b30565b9350610ba1818560208601610b41565b610baa81610b6b565b840191505092915050565b610bbe816108c0565b82525050565b610bcd81610901565b82525050565b600060a0830160008301518482036000860152610bf08282610b7c565b9150506020830151610c056020860182610bb5565b506040830151610c186040860182610bc4565b506060830151610c2b6060860182610bc4565b506080830151610c3e6080860182610bc4565b508091505092915050565b60006020820190508181036000830152610c638184610bd3565b905092915050565b600081519050610c7a8161090b565b92915050565b600060208284031215610c9657610c956108fc565b5b6000610ca484828501610c6b565b91505092915050565b600060a0830160008301518482036000860152610cca8282610b7c565b9150506020830151610cdf6020860182610bb5565b506040830151610cf26040860182610bc4565b506060830151610d056060860182610bc4565b506080830151610d186080860182610bc4565b508091505092915050565b60006020820190508181036000830152610d3d8184610cad565b905092915050565b7f4e487b7100000000000000000000000000000000000000000000000000000000600052601160045260246000fd5b6000610d7f82610901565b9150610d8a83610901565b9250828203905081811115610da257610da1610d45565b5b92915050565b6000606082019050610dbd60008301866108d2565b610dca60208301856108d2565b610dd76040830184610964565b949350505050565b600081905092915050565b6000610df582610b25565b610dff8185610ddf565b9350610e0f818560208601610b41565b80840191505092915050565b6000610e278284610dea565b915081905092915050565b60008115159050919050565b610e4781610e32565b8114610e5257600080fd5b50565b600081519050610e6481610e3e565b92915050565b600060208284031215610e8057610e7f6108fc565b5b6000610e8e84828501610e55565b91505092915050565b600082825260208201905092915050565b7f5354460000000000000000000000000000000000000000000000000000000000600082015250565b6000610ede600383610e97565b9150610ee982610ea8565b602082019050919050565b60006020820190508181036000830152610f0d81610ed1565b9050919050565b6000604082019050610f2960008301856108d2565b610f366020830184610964565b9392505050565b7f5341000000000000000000000000000000000000000000000000000000000000600082015250565b6000610f73600283610e97565b9150610f7e82610f3d565b602082019050919050565b60006020820190508181036000830152610fa281610f66565b905091905056fea2646970667358221220ca15eed77f7cfac97c4c12a698205f74f191cb1a5600a9821b0d143452ba5a3064736f6c63430008180033",
  "linkReferences": {},
  "deployedLinkReferences": {}
}